{"abi":[{"type":"constructor","inputs":[{"name":"_blockGasLimit","type":"uint64","internalType":"uint64"},{"name":"dao","type":"address","internalType":"address"},{"name":"sequencer","type":"address","internalType":"address"}],"stateMutability":"nonpayable"},{"type":"function","name":"BLOCK_GAS_LIMIT_SETTER_ROLE","inputs":[],"outputs":[{"name":"","type":"bytes32","internalType":"bytes32"}],"stateMutability":"view"},{"type":"function","name":"DEFAULT_ADMIN_ROLE","inputs":[],"outputs":[{"name":"","type":"bytes32","internalType":"bytes32"}],"stateMutability":"view"},{"type":"function","name":"PAUSER_ROLE","inputs":[],"outputs":[{"name":"","type":"bytes32","internalType":"bytes32"}],"stateMutability":"view"},{"type":"function","name":"SEQUENCER_ROLE","inputs":[],"outputs":[{"name":"","type":"bytes32","internalType":"bytes32"}],"stateMutability":"view"},{"type":"function","name":"WITHDRAW_ROLE","inputs":[],"outputs":[{"name":"","type":"bytes32","internalType":"bytes32"}],"stateMutability":"view"},{"type":"function","name":"clear","inputs":[],"outputs":[],"stateMutability":"nonpayable"},{"type":"function","name":"getBlockGasLimit","inputs":[],"outputs":[{"name":"","type":"uint64","internalType":"uint64"}],"stateMutability":"view"},{"type":"function","name":"getRoleAdmin","inputs":[{"name":"role","type":"bytes32","internalType":"bytes32"}],"outputs":[{"name":"","type":"bytes32","internalType":"bytes32"}],"stateMutability":"view"},{"type":"function","name":"getTransactions","inputs":[{"name":"blockNumber","type":"uint64","internalType":"uint64"}],"outputs":[{"name":"","type":"tuple[]","internalType":"struct Inbox.Transaction[]","components":[{"name":"encryptedTransaction","type":"bytes","internalType":"bytes"},{"name":"sender","type":"address","internalType":"address"},{"name":"gasLimit","type":"uint64","internalType":"uint64"},{"name":"cumulativeGasLimit","type":"uint64","internalType":"uint64"}]}],"stateMutability":"view"},{"type":"function","name":"grantRole","inputs":[{"name":"role","type":"bytes32","internalType":"bytes32"},{"name":"account","type":"address","internalType":"address"}],"outputs":[],"stateMutability":"nonpayable"},{"type":"function","name":"hasRole","inputs":[{"name":"role","type":"bytes32","internalType":"bytes32"},{"name":"account","type":"address","internalType":"address"}],"outputs":[{"name":"","type":"bool","internalType":"bool"}],"stateMutability":"view"},{"type":"function","name":"pause","inputs":[],"outputs":[],"stateMutability":"nonpayable"},{"type":"function","name":"paused","inputs":[],"outputs":[{"name":"","type":"bool","internalType":"bool"}],"stateMutability":"view"},{"type":"function","name":"renounceRole","inputs":[{"name":"role","type":"bytes32","internalType":"bytes32"},{"name":"callerConfirmation","type":"address","internalType":"address"}],"outputs":[],"stateMutability":"nonpayable"},{"type":"function","name":"revokeRole","inputs":[{"name":"role","type":"bytes32","internalType":"bytes32"},{"name":"account","type":"address","internalType":"address"}],"outputs":[],"stateMutability":"nonpayable"},{"type":"function","name":"setBlockGasLimit","inputs":[{"name":"newBlockGasLimit","type":"uint64","internalType":"uint64"}],"outputs":[],"stateMutability":"nonpayable"},{"type":"function","name":"submitEncryptedTransaction","inputs":[{"name":"blockNumber","type":"uint64","internalType":"uint64"},{"name":"encryptedTransaction","type":"bytes","internalType":"bytes"},{"name":"gasLimit","type":"uint64","internalType":"uint64"},{"name":"excessFeeRecipient","type":"address","internalType":"address"}],"outputs":[],"stateMutability":"payable"},{"type":"function","name":"supportsInterface","inputs":[{"name":"interfaceId","type":"bytes4","internalType":"bytes4"}],"outputs":[{"name":"","type":"bool","internalType":"bool"}],"stateMutability":"view"},{"type":"function","name":"unpause","inputs":[],"outputs":[],"stateMutability":"nonpayable"},{"type":"function","name":"withdraw","inputs":[{"name":"recipient","type":"address","internalType":"address"}],"outputs":[],"stateMutability":"nonpayable"},{"type":"event","name":"EncryptedTransactionSubmitted","inputs":[{"name":"index","type":"uint64","indexed":true,"internalType":"uint64"},{"name":"block","type":"uint64","indexed":true,"internalType":"uint64"},{"name":"encryptedTransaction","type":"bytes","indexed":false,"internalType":"bytes"},{"name":"sender","type":"address","indexed":false,"internalType":"address"},{"name":"gasLimit","type":"uint64","indexed":false,"internalType":"uint64"},{"name":"cumulativeGasLimit","type":"uint64","indexed":false,"internalType":"uint64"},{"name":"fee","type":"uint256","indexed":false,"internalType":"uint256"}],"anonymous":false},{"type":"event","name":"FeesWithdrawn","inputs":[{"name":"recipient","type":"address","indexed":false,"internalType":"address"}],"anonymous":false},{"type":"event","name":"Paused","inputs":[{"name":"account","type":"address","indexed":false,"internalType":"address"}],"anonymous":false},{"type":"event","name":"RoleAdminChanged","inputs":[{"name":"role","type":"bytes32","indexed":true,"internalType":"bytes32"},{"name":"previousAdminRole","type":"bytes32","indexed":true,"internalType":"bytes32"},{"name":"newAdminRole","type":"bytes32","indexed":true,"internalType":"bytes32"}],"anonymous":false},{"type":"event","name":"RoleGranted","inputs":[{"name":"role","type":"bytes32","indexed":true,"internalType":"bytes32"},{"name":"account","type":"address","indexed":true,"internalType":"address"},{"name":"sender","type":"address","indexed":true,"internalType":"address"}],"anonymous":false},{"type":"event","name":"RoleRevoked","inputs":[{"name":"role","type":"bytes32","indexed":true,"internalType":"bytes32"},{"name":"account","type":"address","indexed":true,"internalType":"address"},{"name":"sender","type":"address","indexed":true,"internalType":"address"}],"anonymous":false},{"type":"event","name":"Unpaused","inputs":[{"name":"account","type":"address","indexed":false,"internalType":"address"}],"anonymous":false},{"type":"error","name":"AccessControlBadConfirmation","inputs":[]},{"type":"error","name":"AccessControlUnauthorizedAccount","inputs":[{"name":"account","type":"address","internalType":"address"},{"name":"neededRole","type":"bytes32","internalType":"bytes32"}]},{"type":"error","name":"BlockAlreadyFinalized","inputs":[]},{"type":"error","name":"BlockGasLimitExceeded","inputs":[]},{"type":"error","name":"EnforcedPause","inputs":[]},{"type":"error","name":"ExpectedPause","inputs":[]},{"type":"error","name":"InsufficientFunds","inputs":[]},{"type":"error","name":"TransferEtherFailed","inputs":[]}],"bytecode":{"object":"0x60806040523480156200001157600080fd5b5060405162001450380380620014508339810160408190526200003491620001a5565b6001805460ff1916905581816200004d600083620000d9565b506200007a7f65d7a28e3265b37a6474929f336521b332c1681b933f6cb9f3376673440d862a82620000d9565b505050620000af7fac4f1890dc96c9a02330d1fa696648a38f3b282d2449c2d8e6f10507488c84c882620000d960201b60201c565b5050600380546001600160401b0319166001600160401b03939093169290921790915550620001fc565b6000828152602081815260408083206001600160a01b038516845290915281205460ff166200017e576000838152602081815260408083206001600160a01b03861684529091529020805460ff19166001179055620001353390565b6001600160a01b0316826001600160a01b0316847f2f8788117e7eff1d82e926ec794901d17c78024a50270940304540a733656f0d60405160405180910390a450600162000182565b5060005b92915050565b80516001600160a01b0381168114620001a057600080fd5b919050565b600080600060608486031215620001bb57600080fd5b83516001600160401b0381168114620001d357600080fd5b9250620001e36020850162000188565b9150620001f36040850162000188565b90509250925092565b611244806200020c6000396000f3fe60806040526004361061011f5760003560e01c80635c975abb116100a0578063a44e7cfe11610064578063a44e7cfe14610342578063ae0dad6014610355578063d547741f14610375578063e02023a114610395578063e63ab1e9146103c957600080fd5b80635c975abb146102ac5780638456cb59146102c457806391d14854146102d957806391de737e146102f9578063a217fddf1461032d57600080fd5b80633f4ba83a116100e75780633f4ba83a146102015780634842855c1461021657806351cff8d91461024a57806352efea6e1461026a578063552fd4aa1461027f57600080fd5b806301ffc9a714610124578063248a9ca3146101595780632cc8377d146101975780632f2ff15d146101bf57806336568abe146101e1575b600080fd5b34801561013057600080fd5b5061014461013f366004610d22565b6103fd565b60405190151581526020015b60405180910390f35b34801561016557600080fd5b50610189610174366004610d53565b60009081526020819052604090206001015490565b604051908152602001610150565b3480156101a357600080fd5b506003546040516001600160401b039091168152602001610150565b3480156101cb57600080fd5b506101df6101da366004610d88565b610434565b005b3480156101ed57600080fd5b506101df6101fc366004610d88565b61045f565b34801561020d57600080fd5b506101df610497565b34801561022257600080fd5b506101897fac4f1890dc96c9a02330d1fa696648a38f3b282d2449c2d8e6f10507488c84c881565b34801561025657600080fd5b506101df610265366004610db4565b6104ad565b34801561027657600080fd5b506101df610521565b34801561028b57600080fd5b5061029f61029a366004610de6565b61056c565b6040516101509190610e47565b3480156102b857600080fd5b5060015460ff16610144565b3480156102d057600080fd5b506101df6106af565b3480156102e557600080fd5b506101446102f4366004610d88565b6106e1565b34801561030557600080fd5b506101897ff265e6f4485879ff06917e0b78d882e64c54d090917c00d06bf8720a31ba125681565b34801561033957600080fd5b50610189600081565b6101df610350366004610eff565b61070a565b34801561036157600080fd5b506101df610370366004610de6565b610970565b34801561038157600080fd5b506101df610390366004610d88565b6109be565b3480156103a157600080fd5b506101897f5d8e12c39142ff96d79d04d15d1ba1269e4fe57bb9d26f43523628b34ba108ec81565b3480156103d557600080fd5b506101897f65d7a28e3265b37a6474929f336521b332c1681b933f6cb9f3376673440d862a81565b60006001600160e01b03198216637965db0b60e01b148061042e57506301ffc9a760e01b6001600160e01b03198316145b92915050565b60008281526020819052604090206001015461044f816109e3565b61045983836109ed565b50505050565b6001600160a01b03811633146104885760405163334bd91960e11b815260040160405180910390fd5b6104928282610a7f565b505050565b60006104a2816109e3565b6104aa610aea565b50565b7f5d8e12c39142ff96d79d04d15d1ba1269e4fe57bb9d26f43523628b34ba108ec6104d7816109e3565b6104e18247610b3c565b6040516001600160a01b03831681527f792248b395a0ac81e65e6d79494b5382c8de690233f36c2e5e672f77044887c79060200160405180910390a15050565b7fac4f1890dc96c9a02330d1fa696648a38f3b282d2449c2d8e6f10507488c84c861054b816109e3565b6001600160401b03431660009081526002602052604081206104aa91610c75565b6001600160401b0381166000908152600260209081526040808320805482518185028101850190935280835260609492939192909184015b828210156106a457838290600052602060002090600302016040518060800160405290816000820180546105d790610fe1565b80601f016020809104026020016040519081016040528092919081815260200182805461060390610fe1565b80156106505780601f1061062557610100808354040283529160200191610650565b820191906000526020600020905b81548152906001019060200180831161063357829003601f168201915b50505091835250506001828101546001600160a01b0381166020808501919091526001600160401b03600160a01b9092048216604085015260029094015416606090920191909152918352920191016105a4565b505050509050919050565b7f65d7a28e3265b37a6474929f336521b332c1681b933f6cb9f3376673440d862a6106d9816109e3565b6104aa610bb0565b6000918252602082815260408084206001600160a01b0393909316845291905290205460ff1690565b610712610beb565b436001600160401b0316846001600160401b031611610744576040516351c9b4cf60e11b815260040160405180910390fd5b6000610759486001600160401b038516611031565b90508034101561077c5760405163356680b760e01b815260040160405180910390fd5b6001600160401b0380861660009081526002602052604081208054909290919082166107a95760006107ec565b826107b5600184611048565b6001600160401b0316815481106107ce576107ce61106f565b60009182526020909120600260039092020101546001600160401b03165b6003549091506001600160401b03166108058783611085565b6001600160401b0316111561082d57604051635013664360e11b815260040160405180910390fd5b826040518060800160405280898152602001336001600160a01b03168152602001886001600160401b0316815260200188846108699190611085565b6001600160401b03169052815460018101835560009283526020909220815191926003020190819061089b90826110f5565b50602082015160018201805460408501516001600160a01b039093166001600160e01b031990911617600160a01b6001600160401b03938416021790556060909201516002909101805467ffffffffffffffff19169183169190911790558881169083167f0ac44a68e7048007d82fa113a6c5d84bec8a110ed9e953d4f234fab3c9ecac5389338a61092d8188611085565b8a60405161093f9594939291906111b4565b60405180910390a3600061095385346111fb565b90508015610965576109658682610b3c565b505050505050505050565b7ff265e6f4485879ff06917e0b78d882e64c54d090917c00d06bf8720a31ba125661099a816109e3565b506003805467ffffffffffffffff19166001600160401b0392909216919091179055565b6000828152602081905260409020600101546109d9816109e3565b6104598383610a7f565b6104aa8133610c11565b60006109f983836106e1565b610a77576000838152602081815260408083206001600160a01b03861684529091529020805460ff19166001179055610a2f3390565b6001600160a01b0316826001600160a01b0316847f2f8788117e7eff1d82e926ec794901d17c78024a50270940304540a733656f0d60405160405180910390a450600161042e565b50600061042e565b6000610a8b83836106e1565b15610a77576000838152602081815260408083206001600160a01b0386168085529252808320805460ff1916905551339286917ff6391f5c32d9c69d2a47ea670b442974b53935d1edc7fd64eb21e047a839171b9190a450600161042e565b610af2610c52565b6001805460ff191690557f5db9ee0a495bf2e6ff9c91a7834c1ba4fdd244a5e8aa4e537bd38aeae4b073aa335b6040516001600160a01b03909116815260200160405180910390a1565b6000826001600160a01b03168260405160006040518083038185875af1925050503d8060008114610b89576040519150601f19603f3d011682016040523d82523d6000602084013e610b8e565b606091505b505090508061049257604051631583ef2560e21b815260040160405180910390fd5b610bb8610beb565b6001805460ff1916811790557f62e78cea01bee320cd4e420270b5ea74000d11b0c9f74754ebdbfc544b05a25833610b1f565b60015460ff1615610c0f5760405163d93c066560e01b815260040160405180910390fd5b565b610c1b82826106e1565b610c4e5760405163e2517d3f60e01b81526001600160a01b03821660048201526024810183905260440160405180910390fd5b5050565b60015460ff16610c0f57604051638dfc202b60e01b815260040160405180910390fd5b50805460008255600302906000526020600020908101906104aa91905b80821115610cd4576000610ca68282610cd8565b506001810180546001600160e01b031916905560028101805467ffffffffffffffff19169055600301610c92565b5090565b508054610ce490610fe1565b6000825580601f10610cf4575050565b601f0160209004906000526020600020908101906104aa91905b80821115610cd45760008155600101610d0e565b600060208284031215610d3457600080fd5b81356001600160e01b031981168114610d4c57600080fd5b9392505050565b600060208284031215610d6557600080fd5b5035919050565b80356001600160a01b0381168114610d8357600080fd5b919050565b60008060408385031215610d9b57600080fd5b82359150610dab60208401610d6c565b90509250929050565b600060208284031215610dc657600080fd5b610d4c82610d6c565b80356001600160401b0381168114610d8357600080fd5b600060208284031215610df857600080fd5b610d4c82610dcf565b6000815180845260005b81811015610e2757602081850181015186830182015201610e0b565b506000602082860101526020601f19601f83011685010191505092915050565b600060208083018184528085518083526040925060408601915060408160051b87010184880160005b83811015610edb57603f19898403018552815160808151818652610e9682870182610e01565b838b01516001600160a01b0316878c0152898401516001600160401b039081168b89015260609485015116939096019290925250509386019390860190600101610e70565b509098975050505050505050565b634e487b7160e01b600052604160045260246000fd5b60008060008060808587031215610f1557600080fd5b610f1e85610dcf565b935060208501356001600160401b0380821115610f3a57600080fd5b818701915087601f830112610f4e57600080fd5b813581811115610f6057610f60610ee9565b604051601f8201601f19908116603f01168101908382118183101715610f8857610f88610ee9565b816040528281528a6020848701011115610fa157600080fd5b826020860160208301376000602084830101528097505050505050610fc860408601610dcf565b9150610fd660608601610d6c565b905092959194509250565b600181811c90821680610ff557607f821691505b60208210810361101557634e487b7160e01b600052602260045260246000fd5b50919050565b634e487b7160e01b600052601160045260246000fd5b808202811582820484141761042e5761042e61101b565b6001600160401b038281168282160390808211156110685761106861101b565b5092915050565b634e487b7160e01b600052603260045260246000fd5b6001600160401b038181168382160190808211156110685761106861101b565b601f821115610492576000816000526020600020601f850160051c810160208610156110ce5750805b601f850160051c820191505b818110156110ed578281556001016110da565b505050505050565b81516001600160401b0381111561110e5761110e610ee9565b6111228161111c8454610fe1565b846110a5565b602080601f831160018114611157576000841561113f5750858301515b600019600386901b1c1916600185901b1785556110ed565b600085815260208120601f198616915b8281101561118657888601518255948401946001909101908401611167565b50858210156111a45787850151600019600388901b60f8161c191681555b5050505050600190811b01905550565b60a0815260006111c760a0830188610e01565b6001600160a01b03969096166020830152506001600160401b03938416604082015291909216606082015260800152919050565b8181038181111561042e5761042e61101b56fea2646970667358221220892eb8f46a95516cf2724f5138a3588e2a9cdf3fb9d941ca8c8f63bd5b18350e64736f6c63430008160033","linkReferences":{}},"methodIdentifiers":{"BLOCK_GAS_LIMIT_SETTER_ROLE()":"91de737e","DEFAULT_ADMIN_ROLE()":"a217fddf","PAUSER_ROLE()":"e63ab1e9","SEQUENCER_ROLE()":"4842855c","WITHDRAW_ROLE()":"e02023a1","clear()":"52efea6e","getBlockGasLimit()":"2cc8377d","getRoleAdmin(bytes32)":"248a9ca3","getTransactions(uint64)":"552fd4aa","grantRole(bytes32,address)":"2f2ff15d","hasRole(bytes32,address)":"91d14854","pause()":"8456cb59","paused()":"5c975abb","renounceRole(bytes32,address)":"36568abe","revokeRole(bytes32,address)":"d547741f","setBlockGasLimit(uint64)":"ae0dad60","submitEncryptedTransaction(uint64,bytes,uint64,address)":"a44e7cfe","supportsInterface(bytes4)":"01ffc9a7","unpause()":"3f4ba83a","withdraw(address)":"51cff8d9"},"id":29}