{"abi":[{"type":"constructor","inputs":[{"name":"_blockGasLimit","type":"uint64","internalType":"uint64"},{"name":"dao","type":"address","internalType":"address"},{"name":"sequencer","type":"address","internalType":"address"}],"stateMutability":"nonpayable"},{"type":"function","name":"BLOCK_GAS_LIMIT_SETTER_ROLE","inputs":[],"outputs":[{"name":"","type":"bytes32","internalType":"bytes32"}],"stateMutability":"view"},{"type":"function","name":"DEFAULT_ADMIN_ROLE","inputs":[],"outputs":[{"name":"","type":"bytes32","internalType":"bytes32"}],"stateMutability":"view"},{"type":"function","name":"PAUSER_ROLE","inputs":[],"outputs":[{"name":"","type":"bytes32","internalType":"bytes32"}],"stateMutability":"view"},{"type":"function","name":"SEQUENCER_ROLE","inputs":[],"outputs":[{"name":"","type":"bytes32","internalType":"bytes32"}],"stateMutability":"view"},{"type":"function","name":"WITHDRAW_ROLE","inputs":[],"outputs":[{"name":"","type":"bytes32","internalType":"bytes32"}],"stateMutability":"view"},{"type":"function","name":"clear","inputs":[],"outputs":[],"stateMutability":"nonpayable"},{"type":"function","name":"getBlockGasLimit","inputs":[],"outputs":[{"name":"","type":"uint64","internalType":"uint64"}],"stateMutability":"view"},{"type":"function","name":"getRoleAdmin","inputs":[{"name":"role","type":"bytes32","internalType":"bytes32"}],"outputs":[{"name":"","type":"bytes32","internalType":"bytes32"}],"stateMutability":"view"},{"type":"function","name":"getTransactions","inputs":[{"name":"blockNumber","type":"uint64","internalType":"uint64"}],"outputs":[{"name":"","type":"tuple[]","internalType":"struct Inbox.Transaction[]","components":[{"name":"encryptedTransaction","type":"bytes","internalType":"bytes"},{"name":"gasLimit","type":"uint64","internalType":"uint64"},{"name":"cumulativeGasLimit","type":"uint64","internalType":"uint64"}]}],"stateMutability":"view"},{"type":"function","name":"grantRole","inputs":[{"name":"role","type":"bytes32","internalType":"bytes32"},{"name":"account","type":"address","internalType":"address"}],"outputs":[],"stateMutability":"nonpayable"},{"type":"function","name":"hasRole","inputs":[{"name":"role","type":"bytes32","internalType":"bytes32"},{"name":"account","type":"address","internalType":"address"}],"outputs":[{"name":"","type":"bool","internalType":"bool"}],"stateMutability":"view"},{"type":"function","name":"pause","inputs":[],"outputs":[],"stateMutability":"nonpayable"},{"type":"function","name":"paused","inputs":[],"outputs":[{"name":"","type":"bool","internalType":"bool"}],"stateMutability":"view"},{"type":"function","name":"renounceRole","inputs":[{"name":"role","type":"bytes32","internalType":"bytes32"},{"name":"callerConfirmation","type":"address","internalType":"address"}],"outputs":[],"stateMutability":"nonpayable"},{"type":"function","name":"revokeRole","inputs":[{"name":"role","type":"bytes32","internalType":"bytes32"},{"name":"account","type":"address","internalType":"address"}],"outputs":[],"stateMutability":"nonpayable"},{"type":"function","name":"setBlockGasLimit","inputs":[{"name":"newBlockGasLimit","type":"uint64","internalType":"uint64"}],"outputs":[],"stateMutability":"nonpayable"},{"type":"function","name":"submitEncryptedTransaction","inputs":[{"name":"blockNumber","type":"uint64","internalType":"uint64"},{"name":"encryptedTransaction","type":"bytes","internalType":"bytes"},{"name":"gasLimit","type":"uint64","internalType":"uint64"},{"name":"excessFeeRecipient","type":"address","internalType":"address"}],"outputs":[],"stateMutability":"payable"},{"type":"function","name":"supportsInterface","inputs":[{"name":"interfaceId","type":"bytes4","internalType":"bytes4"}],"outputs":[{"name":"","type":"bool","internalType":"bool"}],"stateMutability":"view"},{"type":"function","name":"unpause","inputs":[],"outputs":[],"stateMutability":"nonpayable"},{"type":"function","name":"withdraw","inputs":[{"name":"recipient","type":"address","internalType":"address"}],"outputs":[],"stateMutability":"nonpayable"},{"type":"event","name":"EncryptedTransactionSubmitted","inputs":[{"name":"index","type":"uint64","indexed":true,"internalType":"uint64"},{"name":"block","type":"uint64","indexed":true,"internalType":"uint64"},{"name":"encryptedTransaction","type":"bytes","indexed":false,"internalType":"bytes"},{"name":"gasLimit","type":"uint64","indexed":false,"internalType":"uint64"},{"name":"cumulativeGasLimit","type":"uint64","indexed":false,"internalType":"uint64"},{"name":"fee","type":"uint256","indexed":false,"internalType":"uint256"}],"anonymous":false},{"type":"event","name":"FeesWithdrawn","inputs":[{"name":"recipient","type":"address","indexed":false,"internalType":"address"}],"anonymous":false},{"type":"event","name":"Paused","inputs":[{"name":"account","type":"address","indexed":false,"internalType":"address"}],"anonymous":false},{"type":"event","name":"RoleAdminChanged","inputs":[{"name":"role","type":"bytes32","indexed":true,"internalType":"bytes32"},{"name":"previousAdminRole","type":"bytes32","indexed":true,"internalType":"bytes32"},{"name":"newAdminRole","type":"bytes32","indexed":true,"internalType":"bytes32"}],"anonymous":false},{"type":"event","name":"RoleGranted","inputs":[{"name":"role","type":"bytes32","indexed":true,"internalType":"bytes32"},{"name":"account","type":"address","indexed":true,"internalType":"address"},{"name":"sender","type":"address","indexed":true,"internalType":"address"}],"anonymous":false},{"type":"event","name":"RoleRevoked","inputs":[{"name":"role","type":"bytes32","indexed":true,"internalType":"bytes32"},{"name":"account","type":"address","indexed":true,"internalType":"address"},{"name":"sender","type":"address","indexed":true,"internalType":"address"}],"anonymous":false},{"type":"event","name":"Unpaused","inputs":[{"name":"account","type":"address","indexed":false,"internalType":"address"}],"anonymous":false},{"type":"error","name":"AccessControlBadConfirmation","inputs":[]},{"type":"error","name":"AccessControlUnauthorizedAccount","inputs":[{"name":"account","type":"address","internalType":"address"},{"name":"neededRole","type":"bytes32","internalType":"bytes32"}]},{"type":"error","name":"BlockAlreadyFinalized","inputs":[]},{"type":"error","name":"BlockGasLimitExceeded","inputs":[]},{"type":"error","name":"EnforcedPause","inputs":[]},{"type":"error","name":"ExpectedPause","inputs":[]},{"type":"error","name":"InsufficientFunds","inputs":[]},{"type":"error","name":"TransferEtherFailed","inputs":[]}],"bytecode":{"object":"0x60806040523480156200001157600080fd5b50604051620013dd380380620013dd8339810160408190526200003491620001a5565b6001805460ff1916905581816200004d600083620000d9565b506200007a7f65d7a28e3265b37a6474929f336521b332c1681b933f6cb9f3376673440d862a82620000d9565b505050620000af7fac4f1890dc96c9a02330d1fa696648a38f3b282d2449c2d8e6f10507488c84c882620000d960201b60201c565b5050600380546001600160401b0319166001600160401b03939093169290921790915550620001fc565b6000828152602081815260408083206001600160a01b038516845290915281205460ff166200017e576000838152602081815260408083206001600160a01b03861684529091529020805460ff19166001179055620001353390565b6001600160a01b0316826001600160a01b0316847f2f8788117e7eff1d82e926ec794901d17c78024a50270940304540a733656f0d60405160405180910390a450600162000182565b5060005b92915050565b80516001600160a01b0381168114620001a057600080fd5b919050565b600080600060608486031215620001bb57600080fd5b83516001600160401b0381168114620001d357600080fd5b9250620001e36020850162000188565b9150620001f36040850162000188565b90509250925092565b6111d1806200020c6000396000f3fe60806040526004361061011f5760003560e01c80635c975abb116100a0578063a44e7cfe11610064578063a44e7cfe14610342578063ae0dad6014610355578063d547741f14610375578063e02023a114610395578063e63ab1e9146103c957600080fd5b80635c975abb146102ac5780638456cb59146102c457806391d14854146102d957806391de737e146102f9578063a217fddf1461032d57600080fd5b80633f4ba83a116100e75780633f4ba83a146102015780634842855c1461021657806351cff8d91461024a57806352efea6e1461026a578063552fd4aa1461027f57600080fd5b806301ffc9a714610124578063248a9ca3146101595780632cc8377d146101975780632f2ff15d146101bf57806336568abe146101e1575b600080fd5b34801561013057600080fd5b5061014461013f366004610cd1565b6103fd565b60405190151581526020015b60405180910390f35b34801561016557600080fd5b50610189610174366004610d02565b60009081526020819052604090206001015490565b604051908152602001610150565b3480156101a357600080fd5b506003546040516001600160401b039091168152602001610150565b3480156101cb57600080fd5b506101df6101da366004610d37565b610434565b005b3480156101ed57600080fd5b506101df6101fc366004610d37565b61045f565b34801561020d57600080fd5b506101df610497565b34801561022257600080fd5b506101897fac4f1890dc96c9a02330d1fa696648a38f3b282d2449c2d8e6f10507488c84c881565b34801561025657600080fd5b506101df610265366004610d63565b6104ad565b34801561027657600080fd5b506101df610521565b34801561028b57600080fd5b5061029f61029a366004610d95565b61056c565b6040516101509190610df6565b3480156102b857600080fd5b5060015460ff16610144565b3480156102d057600080fd5b506101df61069d565b3480156102e557600080fd5b506101446102f4366004610d37565b6106cf565b34801561030557600080fd5b506101897ff265e6f4485879ff06917e0b78d882e64c54d090917c00d06bf8720a31ba125681565b34801561033957600080fd5b50610189600081565b6101df610350366004610e9d565b6106f8565b34801561036157600080fd5b506101df610370366004610d95565b610932565b34801561038157600080fd5b506101df610390366004610d37565b610980565b3480156103a157600080fd5b506101897f5d8e12c39142ff96d79d04d15d1ba1269e4fe57bb9d26f43523628b34ba108ec81565b3480156103d557600080fd5b506101897f65d7a28e3265b37a6474929f336521b332c1681b933f6cb9f3376673440d862a81565b60006001600160e01b03198216637965db0b60e01b148061042e57506301ffc9a760e01b6001600160e01b03198316145b92915050565b60008281526020819052604090206001015461044f816109a5565b61045983836109af565b50505050565b6001600160a01b03811633146104885760405163334bd91960e11b815260040160405180910390fd5b6104928282610a41565b505050565b60006104a2816109a5565b6104aa610aac565b50565b7f5d8e12c39142ff96d79d04d15d1ba1269e4fe57bb9d26f43523628b34ba108ec6104d7816109a5565b6104e18247610afe565b6040516001600160a01b03831681527f792248b395a0ac81e65e6d79494b5382c8de690233f36c2e5e672f77044887c79060200160405180910390a15050565b7fac4f1890dc96c9a02330d1fa696648a38f3b282d2449c2d8e6f10507488c84c861054b816109a5565b6001600160401b03431660009081526002602052604081206104aa91610c37565b6001600160401b0381166000908152600260209081526040808320805482518185028101850190935280835260609492939192909184015b8282101561069257838290600052602060002090600202016040518060600160405290816000820180546105d790610f7f565b80601f016020809104026020016040519081016040528092919081815260200182805461060390610f7f565b80156106505780601f1061062557610100808354040283529160200191610650565b820191906000526020600020905b81548152906001019060200180831161063357829003601f168201915b50505091835250506001918201546001600160401b03808216602080850191909152600160401b909204166040909201919091529183529290920191016105a4565b505050509050919050565b7f65d7a28e3265b37a6474929f336521b332c1681b933f6cb9f3376673440d862a6106c7816109a5565b6104aa610b72565b6000918252602082815260408084206001600160a01b0393909316845291905290205460ff1690565b610700610bad565b436001600160401b0316846001600160401b031611610732576040516351c9b4cf60e11b815260040160405180910390fd5b6000610747486001600160401b038516610fcf565b90508034101561076a5760405163356680b760e01b815260040160405180910390fd5b6001600160401b0380861660009081526002602052604081208054909290919082166107975760006107e2565b826107a3600184610fe6565b6001600160401b0316815481106107bc576107bc61100d565b906000526020600020906002020160010160089054906101000a90046001600160401b03165b6003549091506001600160401b03166107fb8783611023565b6001600160401b0316111561082357604051635013664360e11b815260040160405180910390fd5b604080516060810182528881526001600160401b03881660208201528491810161084d8985611023565b6001600160401b03169052815460018101835560009283526020909220815191926002020190819061087f9082611093565b506020820151600190910180546040909301516001600160401b03908116600160401b026001600160801b031990941692811692909217929092179091558881169083167fa7225f029f7fe3ce824a1ea993c91894e75616de5ac949a7b8c85a4d9531200489896108f08187611023565b896040516109019493929190611152565b60405180910390a360006109158534611188565b90508015610927576109278682610afe565b505050505050505050565b7ff265e6f4485879ff06917e0b78d882e64c54d090917c00d06bf8720a31ba125661095c816109a5565b506003805467ffffffffffffffff19166001600160401b0392909216919091179055565b60008281526020819052604090206001015461099b816109a5565b6104598383610a41565b6104aa8133610bd3565b60006109bb83836106cf565b610a39576000838152602081815260408083206001600160a01b03861684529091529020805460ff191660011790556109f13390565b6001600160a01b0316826001600160a01b0316847f2f8788117e7eff1d82e926ec794901d17c78024a50270940304540a733656f0d60405160405180910390a450600161042e565b50600061042e565b6000610a4d83836106cf565b15610a39576000838152602081815260408083206001600160a01b0386168085529252808320805460ff1916905551339286917ff6391f5c32d9c69d2a47ea670b442974b53935d1edc7fd64eb21e047a839171b9190a450600161042e565b610ab4610c14565b6001805460ff191690557f5db9ee0a495bf2e6ff9c91a7834c1ba4fdd244a5e8aa4e537bd38aeae4b073aa335b6040516001600160a01b03909116815260200160405180910390a1565b6000826001600160a01b03168260405160006040518083038185875af1925050503d8060008114610b4b576040519150601f19603f3d011682016040523d82523d6000602084013e610b50565b606091505b505090508061049257604051631583ef2560e21b815260040160405180910390fd5b610b7a610bad565b6001805460ff1916811790557f62e78cea01bee320cd4e420270b5ea74000d11b0c9f74754ebdbfc544b05a25833610ae1565b60015460ff1615610bd15760405163d93c066560e01b815260040160405180910390fd5b565b610bdd82826106cf565b610c105760405163e2517d3f60e01b81526001600160a01b03821660048201526024810183905260440160405180910390fd5b5050565b60015460ff16610bd157604051638dfc202b60e01b815260040160405180910390fd5b50805460008255600202906000526020600020908101906104aa91905b80821115610c83576000610c688282610c87565b506001810180546001600160801b0319169055600201610c54565b5090565b508054610c9390610f7f565b6000825580601f10610ca3575050565b601f0160209004906000526020600020908101906104aa91905b80821115610c835760008155600101610cbd565b600060208284031215610ce357600080fd5b81356001600160e01b031981168114610cfb57600080fd5b9392505050565b600060208284031215610d1457600080fd5b5035919050565b80356001600160a01b0381168114610d3257600080fd5b919050565b60008060408385031215610d4a57600080fd5b82359150610d5a60208401610d1b565b90509250929050565b600060208284031215610d7557600080fd5b610cfb82610d1b565b80356001600160401b0381168114610d3257600080fd5b600060208284031215610da757600080fd5b610cfb82610d7e565b6000815180845260005b81811015610dd657602081850181015186830182015201610dba565b506000602082860101526020601f19601f83011685010191505092915050565b600060208083018184528085518083526040925060408601915060408160051b87010184880160005b83811015610e7957603f19898403018552815160608151818652610e4582870182610db0565b838b01516001600160401b03908116888d0152938a0151909316958901959095525094870194925090860190600101610e1f565b509098975050505050505050565b634e487b7160e01b600052604160045260246000fd5b60008060008060808587031215610eb357600080fd5b610ebc85610d7e565b935060208501356001600160401b0380821115610ed857600080fd5b818701915087601f830112610eec57600080fd5b813581811115610efe57610efe610e87565b604051601f8201601f19908116603f01168101908382118183101715610f2657610f26610e87565b816040528281528a6020848701011115610f3f57600080fd5b826020860160208301376000602084830101528097505050505050610f6660408601610d7e565b9150610f7460608601610d1b565b905092959194509250565b600181811c90821680610f9357607f821691505b602082108103610fb357634e487b7160e01b600052602260045260246000fd5b50919050565b634e487b7160e01b600052601160045260246000fd5b808202811582820484141761042e5761042e610fb9565b6001600160401b0382811682821603908082111561100657611006610fb9565b5092915050565b634e487b7160e01b600052603260045260246000fd5b6001600160401b0381811683821601908082111561100657611006610fb9565b601f821115610492576000816000526020600020601f850160051c8101602086101561106c5750805b601f850160051c820191505b8181101561108b57828155600101611078565b505050505050565b81516001600160401b038111156110ac576110ac610e87565b6110c0816110ba8454610f7f565b84611043565b602080601f8311600181146110f557600084156110dd5750858301515b600019600386901b1c1916600185901b17855561108b565b600085815260208120601f198616915b8281101561112457888601518255948401946001909101908401611105565b50858210156111425787850151600019600388901b60f8161c191681555b5050505050600190811b01905550565b6080815260006111656080830187610db0565b6001600160401b0395861660208401529390941660408201526060015292915050565b8181038181111561042e5761042e610fb956fea26469706673582212206421b5eb51ff87cc087dd968506ae52b747acb63cda35ecb310527406a6fdbaf64736f6c63430008160033","linkReferences":{}},"methodIdentifiers":{"BLOCK_GAS_LIMIT_SETTER_ROLE()":"91de737e","DEFAULT_ADMIN_ROLE()":"a217fddf","PAUSER_ROLE()":"e63ab1e9","SEQUENCER_ROLE()":"4842855c","WITHDRAW_ROLE()":"e02023a1","clear()":"52efea6e","getBlockGasLimit()":"2cc8377d","getRoleAdmin(bytes32)":"248a9ca3","getTransactions(uint64)":"552fd4aa","grantRole(bytes32,address)":"2f2ff15d","hasRole(bytes32,address)":"91d14854","pause()":"8456cb59","paused()":"5c975abb","renounceRole(bytes32,address)":"36568abe","revokeRole(bytes32,address)":"d547741f","setBlockGasLimit(uint64)":"ae0dad60","submitEncryptedTransaction(uint64,bytes,uint64,address)":"a44e7cfe","supportsInterface(bytes4)":"01ffc9a7","unpause()":"3f4ba83a","withdraw(address)":"51cff8d9"},"id":29}