{
  "abi": [
    {
      "inputs": [
        {
          "internalType": "address",
          "name": "keyperSetManagerAddress",
          "type": "address"
        }
      ],
      "stateMutability": "nonpayable",
      "type": "constructor"
    },
    {
      "inputs": [],
      "name": "AlreadyHaveKey",
      "type": "error"
    },
    {
      "inputs": [],
      "name": "InvalidKey",
      "type": "error"
    },
    {
      "inputs": [],
      "name": "NotAllowed",
      "type": "error"
    },
    {
      "anonymous": false,
      "inputs": [
        {
          "indexed": false,
          "internalType": "uint64",
          "name": "eon",
          "type": "uint64"
        },
        {
          "indexed": false,
          "internalType": "bytes",
          "name": "key",
          "type": "bytes"
        }
      ],
      "name": "EonKeyBroadcast",
      "type": "event"
    },
    {
      "inputs": [
        {
          "internalType": "uint64",
          "name": "eon",
          "type": "uint64"
        },
        {
          "internalType": "bytes",
          "name": "key",
          "type": "bytes"
        }
      ],
      "name": "broadcastEonKey",
      "outputs": [],
      "stateMutability": "nonpayable",
      "type": "function"
    },
    {
      "inputs": [
        {
          "internalType": "uint64",
          "name": "eon",
          "type": "uint64"
        }
      ],
      "name": "getEonKey",
      "outputs": [
        {
          "internalType": "bytes",
          "name": "",
          "type": "bytes"
        }
      ],
      "stateMutability": "view",
      "type": "function"
    }
  ],
  "bytecode": {
    "object": "0x608060405234801561001057600080fd5b506040516106e33803806106e383398101604081905261002f91610054565b600180546001600160a01b0319166001600160a01b0392909216919091179055610084565b60006020828403121561006657600080fd5b81516001600160a01b038116811461007d57600080fd5b9392505050565b610650806100936000396000f3fe608060405234801561001057600080fd5b50600436106100365760003560e01c80638a0b8b281461003b578063daade8e814610064575b600080fd5b61004e610049366004610308565b610079565b60405161005b9190610370565b60405180910390f35b610077610072366004610399565b610126565b005b67ffffffffffffffff811660009081526020819052604090208054606091906100a19061045b565b80601f01602080910402602001604051908101604052809291908181526020018280546100cd9061045b565b801561011a5780601f106100ef5761010080835404028352916020019161011a565b820191906000526020600020905b8154815290600101906020018083116100fd57829003601f168201915b50505050509050919050565b805160000361014857604051630eda9c3d60e31b815260040160405180910390fd5b67ffffffffffffffff82166000908152602081905260408120805461016c9061045b565b9050111561018d57604051632c6c0cd160e11b815260040160405180910390fd5b60015460405163f90f3bed60e01b815267ffffffffffffffff841660048201526001600160a01b039091169063f90f3bed90602401602060405180830381865afa1580156101df573d6000803e3d6000fd5b505050506040513d601f19601f820116820180604052508101906102039190610495565b60405163cde1532d60e01b81523360048201526001600160a01b03919091169063cde1532d90602401602060405180830381865afa158015610249573d6000803e3d6000fd5b505050506040513d601f19601f8201168201806040525081019061026d91906104be565b61028a57604051631eb49d6d60e11b815260040160405180910390fd5b67ffffffffffffffff821660009081526020819052604090206102ad828261052f565b507ff0dbcf46bf98296dd97ce9cb1ef117ac6fd1b2f126741125433174d56dad376882826040516102df9291906105ef565b60405180910390a15050565b803567ffffffffffffffff8116811461030357600080fd5b919050565b60006020828403121561031a57600080fd5b610323826102eb565b9392505050565b6000815180845260005b8181101561035057602081850181015186830182015201610334565b506000602082860101526020601f19601f83011685010191505092915050565b602081526000610323602083018461032a565b634e487b7160e01b600052604160045260246000fd5b600080604083850312156103ac57600080fd5b6103b5836102eb565b9150602083013567ffffffffffffffff808211156103d257600080fd5b818501915085601f8301126103e657600080fd5b8135818111156103f8576103f8610383565b604051601f8201601f19908116603f0116810190838211818310171561042057610420610383565b8160405282815288602084870101111561043957600080fd5b8260208601602083013760006020848301015280955050505050509250929050565b600181811c9082168061046f57607f821691505b60208210810361048f57634e487b7160e01b600052602260045260246000fd5b50919050565b6000602082840312156104a757600080fd5b81516001600160a01b038116811461032357600080fd5b6000602082840312156104d057600080fd5b8151801515811461032357600080fd5b601f82111561052a57600081815260208120601f850160051c810160208610156105075750805b601f850160051c820191505b8181101561052657828155600101610513565b5050505b505050565b815167ffffffffffffffff81111561054957610549610383565b61055d81610557845461045b565b846104e0565b602080601f831160018114610592576000841561057a5750858301515b600019600386901b1c1916600185901b178555610526565b600085815260208120601f198616915b828110156105c1578886015182559484019460019091019084016105a2565b50858210156105df5787850151600019600388901b60f8161c191681555b5050505050600190811b01905550565b67ffffffffffffffff83168152604060208201526000610612604083018461032a565b94935050505056fea264697066735822122087992aa10fb44ced3f12f9935d34062b8cfdf471836b4d11bd571e151d1f35f064736f6c63430008150033",
    "linkReferences": {}
  },
  "methodIdentifiers": {
    "broadcastEonKey(uint64,bytes)": "daade8e8",
    "getEonKey(uint64)": "8a0b8b28"
  },
  "id": 27
}