{
  "abi": [
    {
      "inputs": [],
      "stateMutability": "nonpayable",
      "type": "constructor"
    },
    {
      "inputs": [],
      "name": "AlreadyFinalized",
      "type": "error"
    },
    {
      "inputs": [
        {
          "internalType": "address",
          "name": "owner",
          "type": "address"
        }
      ],
      "name": "OwnableInvalidOwner",
      "type": "error"
    },
    {
      "inputs": [
        {
          "internalType": "address",
          "name": "account",
          "type": "address"
        }
      ],
      "name": "OwnableUnauthorizedAccount",
      "type": "error"
    },
    {
      "anonymous": false,
      "inputs": [
        {
          "indexed": true,
          "internalType": "address",
          "name": "previousOwner",
          "type": "address"
        },
        {
          "indexed": true,
          "internalType": "address",
          "name": "newOwner",
          "type": "address"
        }
      ],
      "name": "OwnershipTransferred",
      "type": "event"
    },
    {
      "inputs": [
        {
          "internalType": "address[]",
          "name": "newMembers",
          "type": "address[]"
        }
      ],
      "name": "addMembers",
      "outputs": [],
      "stateMutability": "nonpayable",
      "type": "function"
    },
    {
      "inputs": [
        {
          "internalType": "uint64",
          "name": "index",
          "type": "uint64"
        }
      ],
      "name": "getMember",
      "outputs": [
        {
          "internalType": "address",
          "name": "",
          "type": "address"
        }
      ],
      "stateMutability": "view",
      "type": "function"
    },
    {
      "inputs": [],
      "name": "getMembers",
      "outputs": [
        {
          "internalType": "address[]",
          "name": "",
          "type": "address[]"
        }
      ],
      "stateMutability": "view",
      "type": "function"
    },
    {
      "inputs": [],
      "name": "getNumMembers",
      "outputs": [
        {
          "internalType": "uint64",
          "name": "",
          "type": "uint64"
        }
      ],
      "stateMutability": "view",
      "type": "function"
    },
    {
      "inputs": [],
      "name": "getThreshold",
      "outputs": [
        {
          "internalType": "uint64",
          "name": "",
          "type": "uint64"
        }
      ],
      "stateMutability": "view",
      "type": "function"
    },
    {
      "inputs": [
        {
          "internalType": "address",
          "name": "a",
          "type": "address"
        }
      ],
      "name": "isAllowedToBroadcastEonKey",
      "outputs": [
        {
          "internalType": "bool",
          "name": "",
          "type": "bool"
        }
      ],
      "stateMutability": "view",
      "type": "function"
    },
    {
      "inputs": [],
      "name": "isFinalized",
      "outputs": [
        {
          "internalType": "bool",
          "name": "",
          "type": "bool"
        }
      ],
      "stateMutability": "view",
      "type": "function"
    },
    {
      "inputs": [],
      "name": "owner",
      "outputs": [
        {
          "internalType": "address",
          "name": "",
          "type": "address"
        }
      ],
      "stateMutability": "view",
      "type": "function"
    },
    {
      "inputs": [],
      "name": "renounceOwnership",
      "outputs": [],
      "stateMutability": "nonpayable",
      "type": "function"
    },
    {
      "inputs": [],
      "name": "setFinalized",
      "outputs": [],
      "stateMutability": "nonpayable",
      "type": "function"
    },
    {
      "inputs": [
        {
          "internalType": "address",
          "name": "_broadcaster",
          "type": "address"
        }
      ],
      "name": "setKeyBroadcaster",
      "outputs": [],
      "stateMutability": "nonpayable",
      "type": "function"
    },
    {
      "inputs": [
        {
          "internalType": "uint64",
          "name": "_threshold",
          "type": "uint64"
        }
      ],
      "name": "setThreshold",
      "outputs": [],
      "stateMutability": "nonpayable",
      "type": "function"
    },
    {
      "inputs": [
        {
          "internalType": "address",
          "name": "newOwner",
          "type": "address"
        }
      ],
      "name": "transferOwnership",
      "outputs": [],
      "stateMutability": "nonpayable",
      "type": "function"
    }
  ],
  "bytecode": {
    "object": "0x608060405234801561001057600080fd5b50338061003757604051631e4fbdf760e01b81526000600482015260240160405180910390fd5b61004081610046565b50610096565b600080546001600160a01b038381166001600160a01b0319831681178455604051919092169283917f8be0079c531659141344cd1fd0a4f28419497f9722a3daafe3b4186f6b6457e09190a35050565b6106a7806100a56000396000f3fe608060405234801561001057600080fd5b50600436106100cf5760003560e01c8063715018a61161008c5780639eab5253116100665780639eab52531461019b578063cde1532d146101b0578063e75235b8146101d9578063f2fde38b146101eb57600080fd5b8063715018a6146101645780638d4e40831461016c5780638da5cb5b1461018a57600080fd5b806317c4de35146100d457806317d5430a146100e95780631de772531461010b5780632e8e6cad146101135780636a33e20e1461013e5780636f4d469b14610151575b600080fd5b6100e76100e236600461050a565b6101fe565b005b6001545b60405167ffffffffffffffff90911681526020015b60405180910390f35b6100e7610255565b61012661012136600461050a565b610272565b6040516001600160a01b039091168152602001610102565b6100e761014c36600461053b565b6102ac565b6100e761015f366004610564565b610310565b6100e76103d4565b600054600160a01b900460ff165b6040519015158152602001610102565b6000546001600160a01b0316610126565b6101a36103e8565b60405161010291906105d9565b61017a6101be36600461053b565b600254600160401b90046001600160a01b0390811691161490565b60025467ffffffffffffffff166100ed565b6100e76101f936600461053b565b61044a565b61020661048d565b600054600160a01b900460ff16156102315760405163475a253560e01b815260040160405180910390fd5b6002805467ffffffffffffffff191667ffffffffffffffff92909216919091179055565b61025d61048d565b6000805460ff60a01b1916600160a01b179055565b600060018267ffffffffffffffff168154811061029157610291610626565b6000918252602090912001546001600160a01b031692915050565b6102b461048d565b600054600160a01b900460ff16156102df5760405163475a253560e01b815260040160405180910390fd5b600280546001600160a01b03909216600160401b0268010000000000000000600160e01b0319909216919091179055565b61031861048d565b600054600160a01b900460ff16156103435760405163475a253560e01b815260040160405180910390fd5b60005b67ffffffffffffffff81168211156103cf57600183838367ffffffffffffffff1681811061037657610376610626565b905060200201602081019061038b919061053b565b81546001810183556000928352602090922090910180546001600160a01b0319166001600160a01b03909216919091179055806103c78161063c565b915050610346565b505050565b6103dc61048d565b6103e660006104ba565b565b6060600180548060200260200160405190810160405280929190818152602001828054801561044057602002820191906000526020600020905b81546001600160a01b03168152600190910190602001808311610422575b5050505050905090565b61045261048d565b6001600160a01b03811661048157604051631e4fbdf760e01b8152600060048201526024015b60405180910390fd5b61048a816104ba565b50565b6000546001600160a01b031633146103e65760405163118cdaa760e01b8152336004820152602401610478565b600080546001600160a01b038381166001600160a01b0319831681178455604051919092169283917f8be0079c531659141344cd1fd0a4f28419497f9722a3daafe3b4186f6b6457e09190a35050565b60006020828403121561051c57600080fd5b813567ffffffffffffffff8116811461053457600080fd5b9392505050565b60006020828403121561054d57600080fd5b81356001600160a01b038116811461053457600080fd5b6000806020838503121561057757600080fd5b823567ffffffffffffffff8082111561058f57600080fd5b818501915085601f8301126105a357600080fd5b8135818111156105b257600080fd5b8660208260051b85010111156105c757600080fd5b60209290920196919550909350505050565b6020808252825182820181905260009190848201906040850190845b8181101561061a5783516001600160a01b0316835292840192918401916001016105f5565b50909695505050505050565b634e487b7160e01b600052603260045260246000fd5b600067ffffffffffffffff80831681810361066757634e487b7160e01b600052601160045260246000fd5b600101939250505056fea2646970667358221220f62a54d416c442166051159c9fb06923a5e73c609c3b22a816d789c754d5b59064736f6c63430008150033",
    "linkReferences": {}
  },
  "methodIdentifiers": {
    "addMembers(address[])": "6f4d469b",
    "getMember(uint64)": "2e8e6cad",
    "getMembers()": "9eab5253",
    "getNumMembers()": "17d5430a",
    "getThreshold()": "e75235b8",
    "isAllowedToBroadcastEonKey(address)": "cde1532d",
    "isFinalized()": "8d4e4083",
    "owner()": "8da5cb5b",
    "renounceOwnership()": "715018a6",
    "setFinalized()": "1de77253",
    "setKeyBroadcaster(address)": "6a33e20e",
    "setThreshold(uint64)": "17c4de35",
    "transferOwnership(address)": "f2fde38b"
  },
  "id": 27
}