{
  "abi": [
    {
      "inputs": [],
      "name": "AlreadyFinalized",
      "type": "error"
    },
    {
      "anonymous": false,
      "inputs": [
        {
          "indexed": true,
          "internalType": "address",
          "name": "previousOwner",
          "type": "address"
        },
        {
          "indexed": true,
          "internalType": "address",
          "name": "newOwner",
          "type": "address"
        }
      ],
      "name": "OwnershipTransferred",
      "type": "event"
    },
    {
      "inputs": [
        {
          "internalType": "address[]",
          "name": "newMembers",
          "type": "address[]"
        }
      ],
      "name": "addMembers",
      "outputs": [],
      "stateMutability": "nonpayable",
      "type": "function"
    },
    {
      "inputs": [
        {
          "internalType": "uint64",
          "name": "index",
          "type": "uint64"
        }
      ],
      "name": "getMember",
      "outputs": [
        {
          "internalType": "address",
          "name": "",
          "type": "address"
        }
      ],
      "stateMutability": "view",
      "type": "function"
    },
    {
      "inputs": [],
      "name": "getMembers",
      "outputs": [
        {
          "internalType": "address[]",
          "name": "",
          "type": "address[]"
        }
      ],
      "stateMutability": "view",
      "type": "function"
    },
    {
      "inputs": [],
      "name": "getNumMembers",
      "outputs": [
        {
          "internalType": "uint64",
          "name": "",
          "type": "uint64"
        }
      ],
      "stateMutability": "view",
      "type": "function"
    },
    {
      "inputs": [],
      "name": "getThreshold",
      "outputs": [
        {
          "internalType": "uint64",
          "name": "",
          "type": "uint64"
        }
      ],
      "stateMutability": "view",
      "type": "function"
    },
    {
      "inputs": [
        {
          "internalType": "address",
          "name": "a",
          "type": "address"
        }
      ],
      "name": "isAllowedToBroadcastEonKey",
      "outputs": [
        {
          "internalType": "bool",
          "name": "",
          "type": "bool"
        }
      ],
      "stateMutability": "view",
      "type": "function"
    },
    {
      "inputs": [],
      "name": "isFinalized",
      "outputs": [
        {
          "internalType": "bool",
          "name": "",
          "type": "bool"
        }
      ],
      "stateMutability": "view",
      "type": "function"
    },
    {
      "inputs": [],
      "name": "owner",
      "outputs": [
        {
          "internalType": "address",
          "name": "",
          "type": "address"
        }
      ],
      "stateMutability": "view",
      "type": "function"
    },
    {
      "inputs": [],
      "name": "renounceOwnership",
      "outputs": [],
      "stateMutability": "nonpayable",
      "type": "function"
    },
    {
      "inputs": [],
      "name": "setFinalized",
      "outputs": [],
      "stateMutability": "nonpayable",
      "type": "function"
    },
    {
      "inputs": [
        {
          "internalType": "address",
          "name": "_broadcaster",
          "type": "address"
        }
      ],
      "name": "setKeyBroadcaster",
      "outputs": [],
      "stateMutability": "nonpayable",
      "type": "function"
    },
    {
      "inputs": [
        {
          "internalType": "uint64",
          "name": "_threshold",
          "type": "uint64"
        }
      ],
      "name": "setThreshold",
      "outputs": [],
      "stateMutability": "nonpayable",
      "type": "function"
    },
    {
      "inputs": [
        {
          "internalType": "address",
          "name": "newOwner",
          "type": "address"
        }
      ],
      "name": "transferOwnership",
      "outputs": [],
      "stateMutability": "nonpayable",
      "type": "function"
    }
  ],
  "bytecode": {
    "object": "0x608060405234801561001057600080fd5b5061001a3361001f565b61006f565b600080546001600160a01b038381166001600160a01b0319831681178455604051919092169283917f8be0079c531659141344cd1fd0a4f28419497f9722a3daafe3b4186f6b6457e09190a35050565b61070f8061007e6000396000f3fe608060405234801561001057600080fd5b50600436106100cf5760003560e01c8063715018a61161008c5780639eab5253116100665780639eab52531461019b578063cde1532d146101b0578063e75235b8146101d9578063f2fde38b146101eb57600080fd5b8063715018a6146101645780638d4e40831461016c5780638da5cb5b1461018a57600080fd5b806317c4de35146100d457806317d5430a146100e95780631de772531461010b5780632e8e6cad146101135780636a33e20e1461013e5780636f4d469b14610151575b600080fd5b6100e76100e2366004610572565b6101fe565b005b6001545b60405167ffffffffffffffff90911681526020015b60405180910390f35b6100e7610255565b610126610121366004610572565b610272565b6040516001600160a01b039091168152602001610102565b6100e761014c3660046105a3565b6102ac565b6100e761015f3660046105cc565b610310565b6100e76103d4565b600054600160a01b900460ff165b6040519015158152602001610102565b6000546001600160a01b0316610126565b6101a36103e8565b6040516101029190610641565b61017a6101be3660046105a3565b600254600160401b90046001600160a01b0390811691161490565b60025467ffffffffffffffff166100ed565b6100e76101f93660046105a3565b61044a565b6102066104c8565b600054600160a01b900460ff16156102315760405163475a253560e01b815260040160405180910390fd5b6002805467ffffffffffffffff191667ffffffffffffffff92909216919091179055565b61025d6104c8565b6000805460ff60a01b1916600160a01b179055565b600060018267ffffffffffffffff16815481106102915761029161068e565b6000918252602090912001546001600160a01b031692915050565b6102b46104c8565b600054600160a01b900460ff16156102df5760405163475a253560e01b815260040160405180910390fd5b600280546001600160a01b03909216600160401b0268010000000000000000600160e01b0319909216919091179055565b6103186104c8565b600054600160a01b900460ff16156103435760405163475a253560e01b815260040160405180910390fd5b60005b67ffffffffffffffff81168211156103cf57600183838367ffffffffffffffff168181106103765761037661068e565b905060200201602081019061038b91906105a3565b81546001810183556000928352602090922090910180546001600160a01b0319166001600160a01b03909216919091179055806103c7816106a4565b915050610346565b505050565b6103dc6104c8565b6103e66000610522565b565b6060600180548060200260200160405190810160405280929190818152602001828054801561044057602002820191906000526020600020905b81546001600160a01b03168152600190910190602001808311610422575b5050505050905090565b6104526104c8565b6001600160a01b0381166104bc5760405162461bcd60e51b815260206004820152602660248201527f4f776e61626c653a206e6577206f776e657220697320746865207a65726f206160448201526564647265737360d01b60648201526084015b60405180910390fd5b6104c581610522565b50565b6000546001600160a01b031633146103e65760405162461bcd60e51b815260206004820181905260248201527f4f776e61626c653a2063616c6c6572206973206e6f7420746865206f776e657260448201526064016104b3565b600080546001600160a01b038381166001600160a01b0319831681178455604051919092169283917f8be0079c531659141344cd1fd0a4f28419497f9722a3daafe3b4186f6b6457e09190a35050565b60006020828403121561058457600080fd5b813567ffffffffffffffff8116811461059c57600080fd5b9392505050565b6000602082840312156105b557600080fd5b81356001600160a01b038116811461059c57600080fd5b600080602083850312156105df57600080fd5b823567ffffffffffffffff808211156105f757600080fd5b818501915085601f83011261060b57600080fd5b81358181111561061a57600080fd5b8660208260051b850101111561062f57600080fd5b60209290920196919550909350505050565b6020808252825182820181905260009190848201906040850190845b818110156106825783516001600160a01b03168352928401929184019160010161065d565b50909695505050505050565b634e487b7160e01b600052603260045260246000fd5b600067ffffffffffffffff8083168181036106cf57634e487b7160e01b600052601160045260246000fd5b600101939250505056fea26469706673582212202ffd6730d48202bcea9ab3b029f15c2a90dc1ec7ad5121cdd5d57d40936ecafc64736f6c63430008150033",
    "linkReferences": {}
  },
  "methodIdentifiers": {
    "addMembers(address[])": "6f4d469b",
    "getMember(uint64)": "2e8e6cad",
    "getMembers()": "9eab5253",
    "getNumMembers()": "17d5430a",
    "getThreshold()": "e75235b8",
    "isAllowedToBroadcastEonKey(address)": "cde1532d",
    "isFinalized()": "8d4e4083",
    "owner()": "8da5cb5b",
    "renounceOwnership()": "715018a6",
    "setFinalized()": "1de77253",
    "setKeyBroadcaster(address)": "6a33e20e",
    "setThreshold(uint64)": "17c4de35",
    "transferOwnership(address)": "f2fde38b"
  },
  "id": 23
}