{
  "abi": [
    {
      "inputs": [],
      "name": "AlreadyHaveKeyperSet",
      "type": "error"
    },
    {
      "inputs": [],
      "name": "KeyperSetNotFinalized",
      "type": "error"
    },
    {
      "inputs": [],
      "name": "NoActiveKeyperSet",
      "type": "error"
    },
    {
      "anonymous": false,
      "inputs": [
        {
          "indexed": false,
          "internalType": "uint64",
          "name": "activationSlot",
          "type": "uint64"
        },
        {
          "indexed": false,
          "internalType": "address",
          "name": "keyperSetContract",
          "type": "address"
        }
      ],
      "name": "KeyperSetAdded",
      "type": "event"
    },
    {
      "anonymous": false,
      "inputs": [
        {
          "indexed": true,
          "internalType": "address",
          "name": "previousOwner",
          "type": "address"
        },
        {
          "indexed": true,
          "internalType": "address",
          "name": "newOwner",
          "type": "address"
        }
      ],
      "name": "OwnershipTransferred",
      "type": "event"
    },
    {
      "inputs": [
        {
          "internalType": "uint64",
          "name": "activationSlot",
          "type": "uint64"
        },
        {
          "internalType": "address",
          "name": "keyperSetContract",
          "type": "address"
        }
      ],
      "name": "addKeyperSet",
      "outputs": [],
      "stateMutability": "nonpayable",
      "type": "function"
    },
    {
      "inputs": [
        {
          "internalType": "uint64",
          "name": "index",
          "type": "uint64"
        }
      ],
      "name": "getKeyperSetActivationSlot",
      "outputs": [
        {
          "internalType": "uint64",
          "name": "",
          "type": "uint64"
        }
      ],
      "stateMutability": "view",
      "type": "function"
    },
    {
      "inputs": [
        {
          "internalType": "uint64",
          "name": "index",
          "type": "uint64"
        }
      ],
      "name": "getKeyperSetAddress",
      "outputs": [
        {
          "internalType": "address",
          "name": "",
          "type": "address"
        }
      ],
      "stateMutability": "view",
      "type": "function"
    },
    {
      "inputs": [
        {
          "internalType": "uint64",
          "name": "slot",
          "type": "uint64"
        }
      ],
      "name": "getKeyperSetIndexBySlot",
      "outputs": [
        {
          "internalType": "uint64",
          "name": "",
          "type": "uint64"
        }
      ],
      "stateMutability": "view",
      "type": "function"
    },
    {
      "inputs": [],
      "name": "getNumKeyperSets",
      "outputs": [
        {
          "internalType": "uint64",
          "name": "",
          "type": "uint64"
        }
      ],
      "stateMutability": "view",
      "type": "function"
    },
    {
      "inputs": [],
      "name": "owner",
      "outputs": [
        {
          "internalType": "address",
          "name": "",
          "type": "address"
        }
      ],
      "stateMutability": "view",
      "type": "function"
    },
    {
      "inputs": [],
      "name": "renounceOwnership",
      "outputs": [],
      "stateMutability": "nonpayable",
      "type": "function"
    },
    {
      "inputs": [
        {
          "internalType": "address",
          "name": "newOwner",
          "type": "address"
        }
      ],
      "name": "transferOwnership",
      "outputs": [],
      "stateMutability": "nonpayable",
      "type": "function"
    }
  ],
  "bytecode": {
    "object": "0x608060405234801561001057600080fd5b5061001a3361001f565b61006f565b600080546001600160a01b038381166001600160a01b0319831681178455604051919092169283917f8be0079c531659141344cd1fd0a4f28419497f9722a3daafe3b4186f6b6457e09190a35050565b6106eb8061007e6000396000f3fe608060405234801561001057600080fd5b50600436106100885760003560e01c8063d3877c431161005b578063d3877c4314610100578063f2e6100a14610113578063f2fde38b1461011b578063f90f3bed1461012e57600080fd5b80636254bd0b1461008d578063715018a6146100be5780638da5cb5b146100c8578063cf751d5f146100ed575b600080fd5b6100a061009b3660046105b7565b610141565b60405167ffffffffffffffff90911681526020015b60405180910390f35b6100c6610191565b005b6000546001600160a01b03165b6040516001600160a01b0390911681526020016100b5565b6100a06100fb3660046105b7565b6101a5565b6100c661010e3660046105e9565b610244565b6002546100a0565b6100c661012936600461061c565b610438565b6100d561013c3660046105b7565b6104b6565b600060018267ffffffffffffffff168154811061016057610160610637565b90600052602060002090600491828204019190066008029054906101000a900467ffffffffffffffff169050919050565b6101996104f0565b6101a3600061054a565b565b6001546000905b801561022a5767ffffffffffffffff831660016101c98184610663565b815481106101d9576101d9610637565b6000918252602090912060048204015460039091166008026101000a900467ffffffffffffffff161161021857610211600182610663565b9392505050565b806102228161067c565b9150506101ac565b506040516367c9fd1d60e11b815260040160405180910390fd5b61024c6104f0565b600254158015906102b8575060018054610267908290610663565b8154811061027757610277610637565b90600052602060002090600491828204019190066008029054906101000a900467ffffffffffffffff1667ffffffffffffffff168267ffffffffffffffff16105b156102d6576040516361cb74ab60e11b815260040160405180910390fd5b806001600160a01b0316638d4e40836040518163ffffffff1660e01b8152600401602060405180830381865afa158015610314573d6000803e3d6000fd5b505050506040513d601f19601f820116820180604052508101906103389190610693565b6103555760405163756318d560e11b815260040160405180910390fd5b6001805480820182557fb10e2d527612073b26eecdfd717e6a320cf44b4afac2b0732d9fcbe2b7fa0cf66004820401805460039092166008026101000a67ffffffffffffffff818102199093169286169081029290921790556002805492830181556000527f405787fa12a823e0f2b7631cc41b3ba8828b3321ca811111fa75cd3aa3bb5ace90910180546001600160a01b0319166001600160a01b0384169081179091556040805192835260208301919091527f6605cb866297050f9f49ae7e0b38e0e4c8178d4b176e24332bc01672818d707b910160405180910390a15050565b6104406104f0565b6001600160a01b0381166104aa5760405162461bcd60e51b815260206004820152602660248201527f4f776e61626c653a206e6577206f776e657220697320746865207a65726f206160448201526564647265737360d01b60648201526084015b60405180910390fd5b6104b38161054a565b50565b600060028267ffffffffffffffff16815481106104d5576104d5610637565b6000918252602090912001546001600160a01b031692915050565b6000546001600160a01b031633146101a35760405162461bcd60e51b815260206004820181905260248201527f4f776e61626c653a2063616c6c6572206973206e6f7420746865206f776e657260448201526064016104a1565b600080546001600160a01b038381166001600160a01b0319831681178455604051919092169283917f8be0079c531659141344cd1fd0a4f28419497f9722a3daafe3b4186f6b6457e09190a35050565b803567ffffffffffffffff811681146105b257600080fd5b919050565b6000602082840312156105c957600080fd5b6102118261059a565b80356001600160a01b03811681146105b257600080fd5b600080604083850312156105fc57600080fd5b6106058361059a565b9150610613602084016105d2565b90509250929050565b60006020828403121561062e57600080fd5b610211826105d2565b634e487b7160e01b600052603260045260246000fd5b634e487b7160e01b600052601160045260246000fd5b818103818111156106765761067661064d565b92915050565b60008161068b5761068b61064d565b506000190190565b6000602082840312156106a557600080fd5b8151801515811461021157600080fdfea2646970667358221220b319a6085094c4aa9090ee02d6cbbd1d75b878c9d5ab92fb878b7725ebe4b9db64736f6c63430008150033",
    "linkReferences": {}
  },
  "methodIdentifiers": {
    "addKeyperSet(uint64,address)": "d3877c43",
    "getKeyperSetActivationSlot(uint64)": "6254bd0b",
    "getKeyperSetAddress(uint64)": "f90f3bed",
    "getKeyperSetIndexBySlot(uint64)": "cf751d5f",
    "getNumKeyperSets()": "f2e6100a",
    "owner()": "8da5cb5b",
    "renounceOwnership()": "715018a6",
    "transferOwnership(address)": "f2fde38b"
  },
  "id": 24
}