{
  "abi": [
    {
      "inputs": [],
      "stateMutability": "nonpayable",
      "type": "constructor"
    },
    {
      "inputs": [],
      "name": "AccessControlBadConfirmation",
      "type": "error"
    },
    {
      "inputs": [
        {
          "internalType": "address",
          "name": "account",
          "type": "address"
        },
        {
          "internalType": "bytes32",
          "name": "neededRole",
          "type": "bytes32"
        }
      ],
      "name": "AccessControlUnauthorizedAccount",
      "type": "error"
    },
    {
      "inputs": [],
      "name": "AlreadyHaveKeyperSet",
      "type": "error"
    },
    {
      "inputs": [],
      "name": "EnforcedPause",
      "type": "error"
    },
    {
      "inputs": [],
      "name": "ExpectedPause",
      "type": "error"
    },
    {
      "inputs": [],
      "name": "KeyperSetNotFinalized",
      "type": "error"
    },
    {
      "inputs": [],
      "name": "NoActiveKeyperSet",
      "type": "error"
    },
    {
      "anonymous": false,
      "inputs": [
        {
          "indexed": false,
          "internalType": "uint64",
          "name": "activationBlock",
          "type": "uint64"
        },
        {
          "indexed": false,
          "internalType": "address",
          "name": "keyperSetContract",
          "type": "address"
        }
      ],
      "name": "KeyperSetAdded",
      "type": "event"
    },
    {
      "anonymous": false,
      "inputs": [
        {
          "indexed": false,
          "internalType": "address",
          "name": "account",
          "type": "address"
        }
      ],
      "name": "Paused",
      "type": "event"
    },
    {
      "anonymous": false,
      "inputs": [
        {
          "indexed": true,
          "internalType": "bytes32",
          "name": "role",
          "type": "bytes32"
        },
        {
          "indexed": true,
          "internalType": "bytes32",
          "name": "previousAdminRole",
          "type": "bytes32"
        },
        {
          "indexed": true,
          "internalType": "bytes32",
          "name": "newAdminRole",
          "type": "bytes32"
        }
      ],
      "name": "RoleAdminChanged",
      "type": "event"
    },
    {
      "anonymous": false,
      "inputs": [
        {
          "indexed": true,
          "internalType": "bytes32",
          "name": "role",
          "type": "bytes32"
        },
        {
          "indexed": true,
          "internalType": "address",
          "name": "account",
          "type": "address"
        },
        {
          "indexed": true,
          "internalType": "address",
          "name": "sender",
          "type": "address"
        }
      ],
      "name": "RoleGranted",
      "type": "event"
    },
    {
      "anonymous": false,
      "inputs": [
        {
          "indexed": true,
          "internalType": "bytes32",
          "name": "role",
          "type": "bytes32"
        },
        {
          "indexed": true,
          "internalType": "address",
          "name": "account",
          "type": "address"
        },
        {
          "indexed": true,
          "internalType": "address",
          "name": "sender",
          "type": "address"
        }
      ],
      "name": "RoleRevoked",
      "type": "event"
    },
    {
      "anonymous": false,
      "inputs": [
        {
          "indexed": false,
          "internalType": "address",
          "name": "account",
          "type": "address"
        }
      ],
      "name": "Unpaused",
      "type": "event"
    },
    {
      "inputs": [],
      "name": "DEFAULT_ADMIN_ROLE",
      "outputs": [
        {
          "internalType": "bytes32",
          "name": "",
          "type": "bytes32"
        }
      ],
      "stateMutability": "view",
      "type": "function"
    },
    {
      "inputs": [],
      "name": "PAUSER_ROLE",
      "outputs": [
        {
          "internalType": "bytes32",
          "name": "",
          "type": "bytes32"
        }
      ],
      "stateMutability": "view",
      "type": "function"
    },
    {
      "inputs": [
        {
          "internalType": "uint64",
          "name": "activationBlock",
          "type": "uint64"
        },
        {
          "internalType": "address",
          "name": "keyperSetContract",
          "type": "address"
        }
      ],
      "name": "addKeyperSet",
      "outputs": [],
      "stateMutability": "nonpayable",
      "type": "function"
    },
    {
      "inputs": [
        {
          "internalType": "uint64",
          "name": "index",
          "type": "uint64"
        }
      ],
      "name": "getKeyperSetActivationBlock",
      "outputs": [
        {
          "internalType": "uint64",
          "name": "",
          "type": "uint64"
        }
      ],
      "stateMutability": "view",
      "type": "function"
    },
    {
      "inputs": [
        {
          "internalType": "uint64",
          "name": "index",
          "type": "uint64"
        }
      ],
      "name": "getKeyperSetAddress",
      "outputs": [
        {
          "internalType": "address",
          "name": "",
          "type": "address"
        }
      ],
      "stateMutability": "view",
      "type": "function"
    },
    {
      "inputs": [
        {
          "internalType": "uint64",
          "name": "blockNumber",
          "type": "uint64"
        }
      ],
      "name": "getKeyperSetIndexByBlock",
      "outputs": [
        {
          "internalType": "uint64",
          "name": "",
          "type": "uint64"
        }
      ],
      "stateMutability": "view",
      "type": "function"
    },
    {
      "inputs": [],
      "name": "getNumKeyperSets",
      "outputs": [
        {
          "internalType": "uint64",
          "name": "",
          "type": "uint64"
        }
      ],
      "stateMutability": "view",
      "type": "function"
    },
    {
      "inputs": [
        {
          "internalType": "bytes32",
          "name": "role",
          "type": "bytes32"
        }
      ],
      "name": "getRoleAdmin",
      "outputs": [
        {
          "internalType": "bytes32",
          "name": "",
          "type": "bytes32"
        }
      ],
      "stateMutability": "view",
      "type": "function"
    },
    {
      "inputs": [
        {
          "internalType": "bytes32",
          "name": "role",
          "type": "bytes32"
        },
        {
          "internalType": "address",
          "name": "account",
          "type": "address"
        }
      ],
      "name": "grantRole",
      "outputs": [],
      "stateMutability": "nonpayable",
      "type": "function"
    },
    {
      "inputs": [
        {
          "internalType": "bytes32",
          "name": "role",
          "type": "bytes32"
        },
        {
          "internalType": "address",
          "name": "account",
          "type": "address"
        }
      ],
      "name": "hasRole",
      "outputs": [
        {
          "internalType": "bool",
          "name": "",
          "type": "bool"
        }
      ],
      "stateMutability": "view",
      "type": "function"
    },
    {
      "inputs": [],
      "name": "pause",
      "outputs": [],
      "stateMutability": "nonpayable",
      "type": "function"
    },
    {
      "inputs": [],
      "name": "paused",
      "outputs": [
        {
          "internalType": "bool",
          "name": "",
          "type": "bool"
        }
      ],
      "stateMutability": "view",
      "type": "function"
    },
    {
      "inputs": [
        {
          "internalType": "bytes32",
          "name": "role",
          "type": "bytes32"
        },
        {
          "internalType": "address",
          "name": "callerConfirmation",
          "type": "address"
        }
      ],
      "name": "renounceRole",
      "outputs": [],
      "stateMutability": "nonpayable",
      "type": "function"
    },
    {
      "inputs": [
        {
          "internalType": "bytes32",
          "name": "role",
          "type": "bytes32"
        },
        {
          "internalType": "address",
          "name": "account",
          "type": "address"
        }
      ],
      "name": "revokeRole",
      "outputs": [],
      "stateMutability": "nonpayable",
      "type": "function"
    },
    {
      "inputs": [
        {
          "internalType": "bytes4",
          "name": "interfaceId",
          "type": "bytes4"
        }
      ],
      "name": "supportsInterface",
      "outputs": [
        {
          "internalType": "bool",
          "name": "",
          "type": "bool"
        }
      ],
      "stateMutability": "view",
      "type": "function"
    },
    {
      "inputs": [],
      "name": "unpause",
      "outputs": [],
      "stateMutability": "nonpayable",
      "type": "function"
    }
  ],
  "bytecode": {
    "object": "0x608060405234801561001057600080fd5b506001805460ff1916905561002660003361002c565b506100d8565b6000828152602081815260408083206001600160a01b038516845290915281205460ff166100ce576000838152602081815260408083206001600160a01b03861684529091529020805460ff191660011790556100863390565b6001600160a01b0316826001600160a01b0316847f2f8788117e7eff1d82e926ec794901d17c78024a50270940304540a733656f0d60405160405180910390a45060016100d2565b5060005b92915050565b610a5f806100e76000396000f3fe608060405234801561001057600080fd5b50600436106101005760003560e01c80638456cb5911610097578063d547741f11610066578063d547741f1461020e578063e63ab1e914610221578063f2e6100a14610248578063f90f3bed1461025057600080fd5b80638456cb59146101d857806391d14854146101e0578063a217fddf146101f3578063d3877c43146101fb57600080fd5b806336568abe116100d357806336568abe1461019f5780633f4ba83a146101b25780635c975abb146101ba578063636df979146101c557600080fd5b806301ffc9a714610105578063035cef151461012d578063248a9ca3146101595780632f2ff15d1461018a575b600080fd5b6101186101133660046108b6565b61027b565b60405190151581526020015b60405180910390f35b61014061013b3660046108fd565b6102b2565b60405167ffffffffffffffff9091168152602001610124565b61017c610167366004610918565b60009081526020819052604090206001015490565b604051908152602001610124565b61019d610198366004610948565b610340565b005b61019d6101ad366004610948565b61036b565b61019d6103a3565b60015460ff16610118565b6101406101d33660046108fd565b6103b9565b61019d6103f4565b6101186101ee366004610948565b610426565b61017c600081565b61019d610209366004610974565b61044f565b61019d61021c366004610948565b61061c565b61017c7f65d7a28e3265b37a6474929f336521b332c1681b933f6cb9f3376673440d862a81565b600254610140565b61026361025e3660046108fd565b610641565b6040516001600160a01b039091168152602001610124565b60006001600160e01b03198216637965db0b60e01b14806102ac57506301ffc9a760e01b6001600160e01b03198316145b92915050565b6002546000905b80156103265767ffffffffffffffff831660026102d76001846109b4565b815481106102e7576102e76109c7565b60009182526020909120015467ffffffffffffffff16116103145761030d6001826109b4565b9392505050565b8061031e816109dd565b9150506102b9565b506040516367c9fd1d60e11b815260040160405180910390fd5b60008281526020819052604090206001015461035b81610682565b610365838361068c565b50505050565b6001600160a01b03811633146103945760405163334bd91960e11b815260040160405180910390fd5b61039e828261071e565b505050565b60006103ae81610682565b6103b6610789565b50565b600060028267ffffffffffffffff16815481106103d8576103d86109c7565b60009182526020909120015467ffffffffffffffff1692915050565b7f65d7a28e3265b37a6474929f336521b332c1681b933f6cb9f3376673440d862a61041e81610682565b6103b66107db565b6000918252602082815260408084206001600160a01b0393909316845291905290205460ff1690565b600061045a81610682565b600254158015906104be5750600280546104b1919061047b906001906109b4565b8154811061048b5761048b6109c7565b60009182526020909120015467ffffffffffffffff166104ac4360016109f4565b610816565b8367ffffffffffffffff16105b156104dc576040516361cb74ab60e11b815260040160405180910390fd5b816001600160a01b0316638d4e40836040518163ffffffff1660e01b8152600401602060405180830381865afa15801561051a573d6000803e3d6000fd5b505050506040513d601f19601f8201168201806040525081019061053e9190610a07565b61055b5760405163756318d560e11b815260040160405180910390fd5b60408051808201825267ffffffffffffffff8581168083526001600160a01b0386811660208086018281526002805460018101825560009190915296517f405787fa12a823e0f2b7631cc41b3ba8828b3321ca811111fa75cd3aa3bb5ace90970180549151909416600160401b026001600160e01b031990911696909516959095179390931790558351908152918201527f6605cb866297050f9f49ae7e0b38e0e4c8178d4b176e24332bc01672818d707b910160405180910390a1505050565b60008281526020819052604090206001015461063781610682565b610365838361071e565b600060028267ffffffffffffffff1681548110610660576106606109c7565b600091825260209091200154600160401b90046001600160a01b031692915050565b6103b6813361082c565b60006106988383610426565b610716576000838152602081815260408083206001600160a01b03861684529091529020805460ff191660011790556106ce3390565b6001600160a01b0316826001600160a01b0316847f2f8788117e7eff1d82e926ec794901d17c78024a50270940304540a733656f0d60405160405180910390a45060016102ac565b5060006102ac565b600061072a8383610426565b15610716576000838152602081815260408083206001600160a01b0386168085529252808320805460ff1916905551339286917ff6391f5c32d9c69d2a47ea670b442974b53935d1edc7fd64eb21e047a839171b9190a45060016102ac565b61079161086d565b6001805460ff191690557f5db9ee0a495bf2e6ff9c91a7834c1ba4fdd244a5e8aa4e537bd38aeae4b073aa335b6040516001600160a01b03909116815260200160405180910390a1565b6107e3610892565b6001805460ff1916811790557f62e78cea01bee320cd4e420270b5ea74000d11b0c9f74754ebdbfc544b05a258336107be565b6000818311610825578161030d565b5090919050565b6108368282610426565b6108695760405163e2517d3f60e01b81526001600160a01b03821660048201526024810183905260440160405180910390fd5b5050565b60015460ff1661089057604051638dfc202b60e01b815260040160405180910390fd5b565b60015460ff16156108905760405163d93c066560e01b815260040160405180910390fd5b6000602082840312156108c857600080fd5b81356001600160e01b03198116811461030d57600080fd5b803567ffffffffffffffff811681146108f857600080fd5b919050565b60006020828403121561090f57600080fd5b61030d826108e0565b60006020828403121561092a57600080fd5b5035919050565b80356001600160a01b03811681146108f857600080fd5b6000806040838503121561095b57600080fd5b8235915061096b60208401610931565b90509250929050565b6000806040838503121561098757600080fd5b610990836108e0565b915061096b60208401610931565b634e487b7160e01b600052601160045260246000fd5b818103818111156102ac576102ac61099e565b634e487b7160e01b600052603260045260246000fd5b6000816109ec576109ec61099e565b506000190190565b808201808211156102ac576102ac61099e565b600060208284031215610a1957600080fd5b8151801515811461030d57600080fdfea264697066735822122062aeca510f08fce4c6bdccc898a97d728c9452d0a85db87d527826e08c753fd564736f6c63430008150033",
    "linkReferences": {}
  },
  "methodIdentifiers": {
    "DEFAULT_ADMIN_ROLE()": "a217fddf",
    "PAUSER_ROLE()": "e63ab1e9",
    "addKeyperSet(uint64,address)": "d3877c43",
    "getKeyperSetActivationBlock(uint64)": "636df979",
    "getKeyperSetAddress(uint64)": "f90f3bed",
    "getKeyperSetIndexByBlock(uint64)": "035cef15",
    "getNumKeyperSets()": "f2e6100a",
    "getRoleAdmin(bytes32)": "248a9ca3",
    "grantRole(bytes32,address)": "2f2ff15d",
    "hasRole(bytes32,address)": "91d14854",
    "pause()": "8456cb59",
    "paused()": "5c975abb",
    "renounceRole(bytes32,address)": "36568abe",
    "revokeRole(bytes32,address)": "d547741f",
    "supportsInterface(bytes4)": "01ffc9a7",
    "unpause()": "3f4ba83a"
  },
  "id": 28
}