{"abi":[{"type":"constructor","inputs":[{"name":"dao","type":"address","internalType":"address"},{"name":"sequencer","type":"address","internalType":"address"}],"stateMutability":"nonpayable"},{"type":"function","name":"DEFAULT_ADMIN_ROLE","inputs":[],"outputs":[{"name":"","type":"bytes32","internalType":"bytes32"}],"stateMutability":"view"},{"type":"function","name":"PAUSER_ROLE","inputs":[],"outputs":[{"name":"","type":"bytes32","internalType":"bytes32"}],"stateMutability":"view"},{"type":"function","name":"addKeyperSet","inputs":[{"name":"activationBlock","type":"uint64","internalType":"uint64"},{"name":"keyperSetContract","type":"address","internalType":"address"}],"outputs":[],"stateMutability":"nonpayable"},{"type":"function","name":"getKeyperSetActivationBlock","inputs":[{"name":"index","type":"uint64","internalType":"uint64"}],"outputs":[{"name":"","type":"uint64","internalType":"uint64"}],"stateMutability":"view"},{"type":"function","name":"getKeyperSetAddress","inputs":[{"name":"index","type":"uint64","internalType":"uint64"}],"outputs":[{"name":"","type":"address","internalType":"address"}],"stateMutability":"view"},{"type":"function","name":"getKeyperSetIndexByBlock","inputs":[{"name":"blockNumber","type":"uint64","internalType":"uint64"}],"outputs":[{"name":"","type":"uint64","internalType":"uint64"}],"stateMutability":"view"},{"type":"function","name":"getNumKeyperSets","inputs":[],"outputs":[{"name":"","type":"uint64","internalType":"uint64"}],"stateMutability":"view"},{"type":"function","name":"getRoleAdmin","inputs":[{"name":"role","type":"bytes32","internalType":"bytes32"}],"outputs":[{"name":"","type":"bytes32","internalType":"bytes32"}],"stateMutability":"view"},{"type":"function","name":"grantRole","inputs":[{"name":"role","type":"bytes32","internalType":"bytes32"},{"name":"account","type":"address","internalType":"address"}],"outputs":[],"stateMutability":"nonpayable"},{"type":"function","name":"hasRole","inputs":[{"name":"role","type":"bytes32","internalType":"bytes32"},{"name":"account","type":"address","internalType":"address"}],"outputs":[{"name":"","type":"bool","internalType":"bool"}],"stateMutability":"view"},{"type":"function","name":"pause","inputs":[],"outputs":[],"stateMutability":"nonpayable"},{"type":"function","name":"paused","inputs":[],"outputs":[{"name":"","type":"bool","internalType":"bool"}],"stateMutability":"view"},{"type":"function","name":"renounceRole","inputs":[{"name":"role","type":"bytes32","internalType":"bytes32"},{"name":"callerConfirmation","type":"address","internalType":"address"}],"outputs":[],"stateMutability":"nonpayable"},{"type":"function","name":"revokeRole","inputs":[{"name":"role","type":"bytes32","internalType":"bytes32"},{"name":"account","type":"address","internalType":"address"}],"outputs":[],"stateMutability":"nonpayable"},{"type":"function","name":"supportsInterface","inputs":[{"name":"interfaceId","type":"bytes4","internalType":"bytes4"}],"outputs":[{"name":"","type":"bool","internalType":"bool"}],"stateMutability":"view"},{"type":"function","name":"unpause","inputs":[],"outputs":[],"stateMutability":"nonpayable"},{"type":"event","name":"KeyperSetAdded","inputs":[{"name":"activationBlock","type":"uint64","indexed":false,"internalType":"uint64"},{"name":"keyperSetContract","type":"address","indexed":false,"internalType":"address"},{"name":"members","type":"address[]","indexed":false,"internalType":"address[]"},{"name":"threshold","type":"uint64","indexed":false,"internalType":"uint64"},{"name":"eon","type":"uint64","indexed":false,"internalType":"uint64"}],"anonymous":false},{"type":"event","name":"Paused","inputs":[{"name":"account","type":"address","indexed":false,"internalType":"address"}],"anonymous":false},{"type":"event","name":"RoleAdminChanged","inputs":[{"name":"role","type":"bytes32","indexed":true,"internalType":"bytes32"},{"name":"previousAdminRole","type":"bytes32","indexed":true,"internalType":"bytes32"},{"name":"newAdminRole","type":"bytes32","indexed":true,"internalType":"bytes32"}],"anonymous":false},{"type":"event","name":"RoleGranted","inputs":[{"name":"role","type":"bytes32","indexed":true,"internalType":"bytes32"},{"name":"account","type":"address","indexed":true,"internalType":"address"},{"name":"sender","type":"address","indexed":true,"internalType":"address"}],"anonymous":false},{"type":"event","name":"RoleRevoked","inputs":[{"name":"role","type":"bytes32","indexed":true,"internalType":"bytes32"},{"name":"account","type":"address","indexed":true,"internalType":"address"},{"name":"sender","type":"address","indexed":true,"internalType":"address"}],"anonymous":false},{"type":"event","name":"Unpaused","inputs":[{"name":"account","type":"address","indexed":false,"internalType":"address"}],"anonymous":false},{"type":"error","name":"AccessControlBadConfirmation","inputs":[]},{"type":"error","name":"AccessControlUnauthorizedAccount","inputs":[{"name":"account","type":"address","internalType":"address"},{"name":"neededRole","type":"bytes32","internalType":"bytes32"}]},{"type":"error","name":"AlreadyHaveKeyperSet","inputs":[]},{"type":"error","name":"EnforcedPause","inputs":[]},{"type":"error","name":"ExpectedPause","inputs":[]},{"type":"error","name":"KeyperSetNotFinalized","inputs":[]},{"type":"error","name":"NoActiveKeyperSet","inputs":[]}],"bytecode":{"object":"0x608060405234801561001057600080fd5b50604051610e49380380610e4983398101604081905261002f91610143565b6001805460ff19169055818161004660008361007b565b506100717f65d7a28e3265b37a6474929f336521b332c1681b933f6cb9f3376673440d862a8261007b565b5050505050610176565b6000828152602081815260408083206001600160a01b038516845290915281205460ff1661011d576000838152602081815260408083206001600160a01b03861684529091529020805460ff191660011790556100d53390565b6001600160a01b0316826001600160a01b0316847f2f8788117e7eff1d82e926ec794901d17c78024a50270940304540a733656f0d60405160405180910390a4506001610121565b5060005b92915050565b80516001600160a01b038116811461013e57600080fd5b919050565b6000806040838503121561015657600080fd5b61015f83610127565b915061016d60208401610127565b90509250929050565b610cc4806101856000396000f3fe608060405234801561001057600080fd5b50600436106101005760003560e01c80638456cb5911610097578063d547741f11610066578063d547741f1461020e578063e63ab1e914610221578063f2e6100a14610248578063f90f3bed1461025057600080fd5b80638456cb59146101d857806391d14854146101e0578063a217fddf146101f3578063d3877c43146101fb57600080fd5b806336568abe116100d357806336568abe1461019f5780633f4ba83a146101b25780635c975abb146101ba578063636df979146101c557600080fd5b806301ffc9a714610105578063035cef151461012d578063248a9ca3146101595780632f2ff15d1461018a575b600080fd5b610118610113366004610990565b61027b565b60405190151581526020015b60405180910390f35b61014061013b3660046109d0565b6102b2565b60405167ffffffffffffffff9091168152602001610124565b61017c6101673660046109ed565b60009081526020819052604090206001015490565b604051908152602001610124565b61019d610198366004610a1b565b610340565b005b61019d6101ad366004610a1b565b61036b565b61019d6103a3565b60015460ff16610118565b6101406101d33660046109d0565b6103b9565b61019d6103f4565b6101186101ee366004610a1b565b610426565b61017c600081565b61019d610209366004610a4b565b61044f565b61019d61021c366004610a1b565b6106f6565b61017c7f65d7a28e3265b37a6474929f336521b332c1681b933f6cb9f3376673440d862a81565b600254610140565b61026361025e3660046109d0565b61071b565b6040516001600160a01b039091168152602001610124565b60006001600160e01b03198216637965db0b60e01b14806102ac57506301ffc9a760e01b6001600160e01b03198316145b92915050565b6002546000905b80156103265767ffffffffffffffff831660026102d7600184610a8f565b815481106102e7576102e7610aa2565b60009182526020909120015467ffffffffffffffff16116103145761030d600182610a8f565b9392505050565b8061031e81610ab8565b9150506102b9565b506040516367c9fd1d60e11b815260040160405180910390fd5b60008281526020819052604090206001015461035b8161075c565b6103658383610766565b50505050565b6001600160a01b03811633146103945760405163334bd91960e11b815260040160405180910390fd5b61039e82826107f8565b505050565b60006103ae8161075c565b6103b6610863565b50565b600060028267ffffffffffffffff16815481106103d8576103d8610aa2565b60009182526020909120015467ffffffffffffffff1692915050565b7f65d7a28e3265b37a6474929f336521b332c1681b933f6cb9f3376673440d862a61041e8161075c565b6103b66108b5565b6000918252602082815260408084206001600160a01b0393909316845291905290205460ff1690565b600061045a8161075c565b600254158015906104be5750600280546104b1919061047b90600190610a8f565b8154811061048b5761048b610aa2565b60009182526020909120015467ffffffffffffffff166104ac436001610acf565b6108f0565b8367ffffffffffffffff16105b156104dc576040516361cb74ab60e11b815260040160405180910390fd5b816001600160a01b0316638d4e40836040518163ffffffff1660e01b8152600401602060405180830381865afa15801561051a573d6000803e3d6000fd5b505050506040513d601f19601f8201168201806040525081019061053e9190610ae2565b61055b5760405163756318d560e11b815260040160405180910390fd5b60408051808201825267ffffffffffffffff80861682526001600160a01b038086166020840181815260028054600181018255600091825295517f405787fa12a823e0f2b7631cc41b3ba8828b3321ca811111fa75cd3aa3bb5ace90960180549251909416600160401b026001600160e01b031990921695909416949094179390931790558251639eab525360e01b8152925185937fa940387dac06ebd336730f1d14b21629a9d137069a9137e871f95313e101016593889386939192639eab525392600480830193928290030181865afa15801561063e573d6000803e3d6000fd5b505050506040513d6000823e601f3d908101601f191682016040526106669190810190610b2a565b846001600160a01b031663e75235b86040518163ffffffff1660e01b8152600401602060405180830381865afa1580156106a4573d6000803e3d6000fd5b505050506040513d601f19601f820116820180604052508101906106c89190610bef565b6002546106d790600190610a8f565b6040516106e8959493929190610c0c565b60405180910390a150505050565b6000828152602081905260409020600101546107118161075c565b61036583836107f8565b600060028267ffffffffffffffff168154811061073a5761073a610aa2565b600091825260209091200154600160401b90046001600160a01b031692915050565b6103b68133610906565b60006107728383610426565b6107f0576000838152602081815260408083206001600160a01b03861684529091529020805460ff191660011790556107a83390565b6001600160a01b0316826001600160a01b0316847f2f8788117e7eff1d82e926ec794901d17c78024a50270940304540a733656f0d60405160405180910390a45060016102ac565b5060006102ac565b60006108048383610426565b156107f0576000838152602081815260408083206001600160a01b0386168085529252808320805460ff1916905551339286917ff6391f5c32d9c69d2a47ea670b442974b53935d1edc7fd64eb21e047a839171b9190a45060016102ac565b61086b610947565b6001805460ff191690557f5db9ee0a495bf2e6ff9c91a7834c1ba4fdd244a5e8aa4e537bd38aeae4b073aa335b6040516001600160a01b03909116815260200160405180910390a1565b6108bd61096c565b6001805460ff1916811790557f62e78cea01bee320cd4e420270b5ea74000d11b0c9f74754ebdbfc544b05a25833610898565b60008183116108ff578161030d565b5090919050565b6109108282610426565b6109435760405163e2517d3f60e01b81526001600160a01b03821660048201526024810183905260440160405180910390fd5b5050565b60015460ff1661096a57604051638dfc202b60e01b815260040160405180910390fd5b565b60015460ff161561096a5760405163d93c066560e01b815260040160405180910390fd5b6000602082840312156109a257600080fd5b81356001600160e01b03198116811461030d57600080fd5b67ffffffffffffffff811681146103b657600080fd5b6000602082840312156109e257600080fd5b813561030d816109ba565b6000602082840312156109ff57600080fd5b5035919050565b6001600160a01b03811681146103b657600080fd5b60008060408385031215610a2e57600080fd5b823591506020830135610a4081610a06565b809150509250929050565b60008060408385031215610a5e57600080fd5b8235610a69816109ba565b91506020830135610a4081610a06565b634e487b7160e01b600052601160045260246000fd5b818103818111156102ac576102ac610a79565b634e487b7160e01b600052603260045260246000fd5b600081610ac757610ac7610a79565b506000190190565b808201808211156102ac576102ac610a79565b600060208284031215610af457600080fd5b8151801515811461030d57600080fd5b634e487b7160e01b600052604160045260246000fd5b8051610b2581610a06565b919050565b60006020808385031215610b3d57600080fd5b825167ffffffffffffffff80821115610b5557600080fd5b818501915085601f830112610b6957600080fd5b815181811115610b7b57610b7b610b04565b8060051b604051601f19603f83011681018181108582111715610ba057610ba0610b04565b604052918252848201925083810185019188831115610bbe57600080fd5b938501935b82851015610be357610bd485610b1a565b84529385019392850192610bc3565b98975050505050505050565b600060208284031215610c0157600080fd5b815161030d816109ba565b600060a0820167ffffffffffffffff8089168452602060018060a01b03808a16602087015260a0604087015283895180865260c08801915060208b01955060005b81811015610c6b578651841683529584019591840191600101610c4d565b50509783166060870152505093909316608090920191909152509094935050505056fea2646970667358221220e0c6c0c12a1b54d0f71b57c82c876d8055a92f13768bd2355b37651916c35cd164736f6c63430008160033","linkReferences":{}},"methodIdentifiers":{"DEFAULT_ADMIN_ROLE()":"a217fddf","PAUSER_ROLE()":"e63ab1e9","addKeyperSet(uint64,address)":"d3877c43","getKeyperSetActivationBlock(uint64)":"636df979","getKeyperSetAddress(uint64)":"f90f3bed","getKeyperSetIndexByBlock(uint64)":"035cef15","getNumKeyperSets()":"f2e6100a","getRoleAdmin(bytes32)":"248a9ca3","grantRole(bytes32,address)":"2f2ff15d","hasRole(bytes32,address)":"91d14854","pause()":"8456cb59","paused()":"5c975abb","renounceRole(bytes32,address)":"36568abe","revokeRole(bytes32,address)":"d547741f","supportsInterface(bytes4)":"01ffc9a7","unpause()":"3f4ba83a"},"id":32}